{
  "contractName": "Caller",
  "abi": [
    {
      "anonymous": false,
      "inputs": [
        {
          "indexed": false,
          "internalType": "bool",
          "name": "success",
          "type": "bool"
        },
        {
          "indexed": false,
          "internalType": "bytes",
          "name": "data",
          "type": "bytes"
        }
      ],
      "name": "Response",
      "type": "event"
    },
    {
      "inputs": [
        {
          "internalType": "address payable",
          "name": "_addr",
          "type": "address"
        }
      ],
      "name": "testCallFoo",
      "outputs": [
        {
          "internalType": "bytes",
          "name": "",
          "type": "bytes"
        }
      ],
      "stateMutability": "payable",
      "type": "function",
      "payable": true
    },
    {
      "inputs": [
        {
          "internalType": "address",
          "name": "_addr",
          "type": "address"
        }
      ],
      "name": "testCallDoesNotExist",
      "outputs": [],
      "stateMutability": "nonpayable",
      "type": "function"
    }
  ],
  "bytecode": "0x608060405234801561001057600080fd5b50610665806100206000396000f3fe6080604052600436106100295760003560e01c806387ba61791461002e578063ff00726c1461005e575b600080fd5b61004860048036038101906100439190610361565b610087565b6040516100559190610427565b60405180910390f35b34801561006a57600080fd5b5061008560048036038101906100809190610487565b6101cf565b005b60606000808373ffffffffffffffffffffffffffffffffffffffff163461138890607b6040516024016100ba9190610563565b6040516020818303038152906040527f24ccab8f000000000000000000000000000000000000000000000000000000007bffffffffffffffffffffffffffffffffffffffffffffffffffffffff19166020820180517bffffffffffffffffffffffffffffffffffffffffffffffffffffffff838183161783525050505060405161014491906105cd565b600060405180830381858888f193505050503d8060008114610182576040519150601f19603f3d011682016040523d82523d6000602084013e610187565b606091505b50915091507f13848c3e38f8886f3f5d2ad9dff80d8092c2bbb8efd5b887a99c2c6cfc09ac2a82826040516101bd9291906105ff565b60405180910390a18092505050919050565b6000808273ffffffffffffffffffffffffffffffffffffffff166040516024016040516020818303038152906040527f1dcc85ae000000000000000000000000000000000000000000000000000000007bffffffffffffffffffffffffffffffffffffffffffffffffffffffff19166020820180517bffffffffffffffffffffffffffffffffffffffffffffffffffffffff838183161783525050505060405161027991906105cd565b6000604051808303816000865af19150503d80600081146102b6576040519150601f19603f3d011682016040523d82523d6000602084013e6102bb565b606091505b50915091507f13848c3e38f8886f3f5d2ad9dff80d8092c2bbb8efd5b887a99c2c6cfc09ac2a82826040516102f19291906105ff565b60405180910390a1505050565b600080fd5b600073ffffffffffffffffffffffffffffffffffffffff82169050919050565b600061032e82610303565b9050919050565b61033e81610323565b811461034957600080fd5b50565b60008135905061035b81610335565b92915050565b600060208284031215610377576103766102fe565b5b60006103858482850161034c565b91505092915050565b600081519050919050565b600082825260208201905092915050565b60005b838110156103c85780820151818401526020810190506103ad565b838111156103d7576000848401525b50505050565b6000601f19601f8301169050919050565b60006103f98261038e565b6104038185610399565b93506104138185602086016103aa565b61041c816103dd565b840191505092915050565b6000602082019050818103600083015261044181846103ee565b905092915050565b600061045482610303565b9050919050565b61046481610449565b811461046f57600080fd5b50565b6000813590506104818161045b565b92915050565b60006020828403121561049d5761049c6102fe565b5b60006104ab84828501610472565b91505092915050565b600082825260208201905092915050565b7f63616c6c20666f6f000000000000000000000000000000000000000000000000600082015250565b60006104fb6008836104b4565b9150610506826104c5565b602082019050919050565b6000819050919050565b600060ff82169050919050565b6000819050919050565b600061054d61054861054384610511565b610528565b61051b565b9050919050565b61055d81610532565b82525050565b6000604082019050818103600083015261057c816104ee565b905061058b6020830184610554565b92915050565b600081905092915050565b60006105a78261038e565b6105b18185610591565b93506105c18185602086016103aa565b80840191505092915050565b60006105d9828461059c565b915081905092915050565b60008115159050919050565b6105f9816105e4565b82525050565b600060408201905061061460008301856105f0565b818103602083015261062681846103ee565b9050939250505056fea2646970667358221220b5a4c98dcc5e318e5070c7e2ab1da340b8eca098496bb87163bc613160c6ed1764736f6c634300080d0033",
  "immutableReferences": {},
  "source": "// SPDX-License-Identifier: MIT\npragma solidity ^0.8.10;\n\ncontract Receiver {\n    event Received(address caller, uint amount, string message);\n\n    fallback() external payable {\n        emit Received(msg.sender, msg.value, \"Fallback was called\");\n    }\n\n    function foo(string memory _message, uint _x) public payable returns (uint) {\n        emit Received(msg.sender, msg.value, _message);\n\n        return _x + 1;\n    }\n}\n\ncontract Caller {\n    event Response(bool success, bytes data);\n\n    // Let's imagine that contract B does not have the source code for\n    // contract A, but we do know the address of A and the function to call.\n    function testCallFoo(address payable _addr) public payable returns (bytes memory) {\n        // You can send ether and specify a custom gas amount\n        (bool success, bytes memory data) = _addr.call{value: msg.value, gas: 5000}(\n            abi.encodeWithSignature(\"foo(string,uint256)\", \"call foo\", 123)\n        );\n\n        emit Response(success, data);\n\n\t\treturn data;\n    }\n\n    // Calling a function that does not exist triggers the fallback function.\n    function testCallDoesNotExist(address _addr) public {\n        (bool success, bytes memory data) = _addr.call(\n            abi.encodeWithSignature(\"doesNotExist()\")\n        );\n\n        emit Response(success, data);\n    }\n}\n",
  "sourcePath": "/home/dhinakaran/workspace/weaver-dlt-interoperability/samples/besu/trial/contracts/Trial.sol",
  "compiler": {
    "name": "solc",
    "version": "0.8.13+commit.abaa5c0e.Emscripten.clang"
  },
  "schemaVersion": "3.4.1",
  "updatedAt": "2022-03-24T12:08:33.868Z",
  "networkType": "ethereum",
  "devdoc": {
    "kind": "dev",
    "methods": {},
    "version": 1
  },
  "userdoc": {
    "kind": "user",
    "methods": {},
    "version": 1
  }
}